:1000000012C02CC02BC0ADC129C028C029C226C037
:1000100025C024C023C006C121C073C11FC01EC09B
:100020001DC01CC01BC011241FBECFE5D4E0DEBF25
:10003000CDBF10E0A0E6B0E0E8EBF5E002C005902F
:100040000D92A037B107D9F721E0A0E7B0E001C0D9
:100050001D92A939B207E1F720D2ACC2D1CFCF931C
:10006000DF93FC018481A081B18194E0899FA00D80
:10007000B11D1124EB01488159816A817B814D9327
:100080005D936D937C931397848190E001966281D8
:1000900070E069D28483DF91CF9108950F931F930D
:1000A000FC018381A081B18194E0899FA00DB11DE5
:1000B00011240D911D912D913C91838190E0019629
:1000C000628170E050D28383C901B8011F910F9102
:1000D0000895FC012381948181E0291380E0089533
:1000E000FC01248130E0828190E0019728173907D4
:1000F00019F48381882361F04381248130E02F5FEC
:100100003F4F50E081E02417350719F080E0089553
:1001100081E00895FC019481DB018C91A081B18183
:10012000A90FB11D8C93848190E00196628170E0EB
:100130001AD284830895FC018381A081B181A80F24
:10014000B11D2C91838190E00196628170E00BD209
:100150008383822F0895FC012381948181E02913F8
:1001600080E00895DF92EF92FF920F931F93CF9359
:10017000DF931F92CDB7DEB77C011092750081E747
:100180005D9B02C08CB907C08983BE016F5F7F4F42
:100190008BE690E0BFDF870185E0E80EF11C83E786
:1001A000D82EF8018081982F9D7F913711F08937E3
:1001B00039F4D982BE016F5F7F4F8BE690E0AADFF2
:1001C000B8018BE690E0A6DF0F5F1F4F0E151F05ED
:1001D00041F789E78983BE016F5F7F4F8BE690E02F
:1001E00099DF0F90DF91CF911F910F91FF90EF90CA
:1001F000DF900895CF93DF9320917500222319F0AB
:10020000DF91CF91AFCFEC0181E690E069DF811102
:1002100006C0BE0181E690E0DF91CF9120CFDF9153
:10022000CF9108951F920F920FB60F9211242F9322
:100230003F934F935F936F937F938F939F93AF936E
:10024000BF93EF93FF9385B515BC109275008CB1E9
:10025000E0916000EF3F29F4813739F4109260009B
:100260003BC0E430A1F4893721F08FEF8093600028
:1002700033C08FEF8093600086E690E031DF81111C
:100280002BC061E770E086E690E0E9DE25C0909142
:100290007000992369F091E09E0F909360000E2EFC
:1002A000000CFF0BEF58FF4F80831092700014C0BA
:1002B000833721F481E0809370000EC0982F977FE0
:1002C000913799F291E09E0F909360000E2E000CF2
:1002D000FF0BEF58FF4F808314BC85B5856085BD4B
:1002E000FF91EF91BF91AF919F918F917F916F910E
:1002F0005F914F913F912F910F900FBE0F901F90E4
:1003000018951F920F920FB60F9211242F933F93BF
:100310004F935F936F937F938F939F93AF93BF930D
:10032000EF93FF938BE690E016DF882329F014BC4F
:1003300085B5856085BD04C08BE690E0FCDE8CB998
:10034000FF91EF91BF91AF919F918F917F916F91AD
:100350005F914F913F912F910F900FBE0F901F9083
:1003600018951F920F920FB60F9211242F933F935F
:100370004F935F936F937F938F939F93AF93BF93AD
:10038000EF93FF93CF93DF9300D000D0CDB7DEB7CC
:1003900081E690E09EDE882339F085B515BC14BC5B
:1003A00081E0809375000AC081E690E077DE698382
:1003B0007A838B839C83CE010196D4DE0F900F90BD
:1003C0000F900F90DF91CF91FF91EF91BF91AF917F
:1003D0009F918F917F916F915F914F913F912F915D
:1003E0000F900FBE0F901F90189585B5886085BD42
:1003F00088EC83BD89B7806889BF85B5856085BD78
:10040000089590BD89B988ED8AB980B5866A80BDA6
:1004100080B510BCEACF282FFC018AE831E39E2F7B
:10042000921B961760F49191892798E087FF03C08B
:10043000880F832701C0880F9150C1F7F0CF08952E
:10044000CF93DF93EC0163E0E6DF8B83DF91CF9105
:10045000089564E0E0DF91E0811190E0892F089534
:100460001F920F920FB60F9211248F9381E0809309
:1004700098018F910F900FBE0F901F9018958EB519
:1004800088608EBD84EA91E09BBD8ABD89B780619A
:1004900089BF8EB585608EBD0895CF93DF93CDB7AC
:1004A000DEB728970FB6F894DEBF0FBECDBF87B377
:1004B00017BAC29A7894E3DF8CE090E0A2DFF12CC7
:1004C00000E085E4E82E9FE4D92E28E5C22EB299FB
:1004D00005C00B3F28F40F5F1F2D04C010E001C0C2
:1004E00011E000E086E690E0F4DD811118C086E6B8
:1004F00090E0D4DD69837A838B839C836B3419F01D
:10050000CE010196A6DF89819A81AB81BC818D8362
:100510009E83AF83B887CE0105966CDEE3CF8091D2
:1005200098018823E9F011110FC0F11003C010E009
:10053000F12ECDCFED82DE82DF82CE01059680DF07
:10054000CE01059657DEF3CFED82CE82CF82CE016B
:10055000059676DFCE0105964DDE10929801E8CF24
:100560001111E6CFE2CF97FB072E16F4009406D0C8
:1005700077FD08D00BD007FC05D03EF4909581950F
:100580009F4F0895709561957F4F0895AA1BBB1BDF
:1005900051E107C0AA1FBB1FA617B70710F0A61B83
:1005A000B70B881F991F5A95A9F780959095BC01A4
:0805B000CD010895F894FFCF7E
:1005B800FF7600140000C6003200008E010A000019
:00000001FF
